{
  "_format": "hh-sol-artifact-1",
  "contractName": "MentorAgent",
  "sourceName": "contracts/MentorAgent.sol",
  "abi": [
    {
      "anonymous": false,
      "inputs": [
        {
          "indexed": true,
          "internalType": "uint256",
          "name": "agentId",
          "type": "uint256"
        },
        {
          "indexed": false,
          "internalType": "string",
          "name": "name",
          "type": "string"
        },
        {
          "indexed": false,
          "internalType": "address",
          "name": "owner",
          "type": "address"
        }
      ],
      "name": "AgentCreated",
      "type": "event"
    },
    {
      "anonymous": false,
      "inputs": [
        {
          "indexed": true,
          "internalType": "uint256",
          "name": "agentId",
          "type": "uint256"
        }
      ],
      "name": "AgentUpdated",
      "type": "event"
    },
    {
      "anonymous": false,
      "inputs": [
        {
          "indexed": true,
          "internalType": "uint256",
          "name": "agentId",
          "type": "uint256"
        },
        {
          "indexed": true,
          "internalType": "address",
          "name": "student",
          "type": "address"
        },
        {
          "indexed": false,
          "internalType": "uint256",
          "name": "amount",
          "type": "uint256"
        }
      ],
      "name": "PaymentDistributed",
      "type": "event"
    },
    {
      "stateMutability": "payable",
      "type": "fallback"
    },
    {
      "inputs": [],
      "name": "agentCount",
      "outputs": [
        {
          "internalType": "uint256",
          "name": "",
          "type": "uint256"
        }
      ],
      "stateMutability": "view",
      "type": "function"
    },
    {
      "inputs": [
        {
          "internalType": "uint256",
          "name": "",
          "type": "uint256"
        }
      ],
      "name": "agentIds",
      "outputs": [
        {
          "internalType": "uint256",
          "name": "",
          "type": "uint256"
        }
      ],
      "stateMutability": "view",
      "type": "function"
    },
    {
      "inputs": [
        {
          "internalType": "uint256",
          "name": "",
          "type": "uint256"
        }
      ],
      "name": "agents",
      "outputs": [
        {
          "internalType": "string",
          "name": "name",
          "type": "string"
        },
        {
          "internalType": "address",
          "name": "owner",
          "type": "address"
        },
        {
          "internalType": "string",
          "name": "title",
          "type": "string"
        },
        {
          "internalType": "string",
          "name": "industry",
          "type": "string"
        },
        {
          "internalType": "string",
          "name": "description",
          "type": "string"
        },
        {
          "internalType": "string",
          "name": "country",
          "type": "string"
        },
        {
          "internalType": "string",
          "name": "level",
          "type": "string"
        },
        {
          "internalType": "uint256",
          "name": "minSalary",
          "type": "uint256"
        },
        {
          "internalType": "uint256",
          "name": "maxSalary",
          "type": "uint256"
        },
        {
          "internalType": "string",
          "name": "requiredSkills",
          "type": "string"
        },
        {
          "internalType": "uint256",
          "name": "totalReceived",
          "type": "uint256"
        }
      ],
      "stateMutability": "view",
      "type": "function"
    },
    {
      "inputs": [
        {
          "internalType": "uint256",
          "name": "",
          "type": "uint256"
        },
        {
          "internalType": "uint256",
          "name": "",
          "type": "uint256"
        },
        {
          "internalType": "uint256",
          "name": "",
          "type": "uint256"
        }
      ],
      "name": "contributorSnapshots",
      "outputs": [
        {
          "internalType": "address",
          "name": "contributor",
          "type": "address"
        },
        {
          "internalType": "uint256",
          "name": "contributionRate",
          "type": "uint256"
        }
      ],
      "stateMutability": "view",
      "type": "function"
    },
    {
      "inputs": [
        {
          "components": [
            {
              "internalType": "string",
              "name": "name",
              "type": "string"
            },
            {
              "internalType": "string",
              "name": "title",
              "type": "string"
            },
            {
              "internalType": "string",
              "name": "industry",
              "type": "string"
            },
            {
              "internalType": "string",
              "name": "description",
              "type": "string"
            },
            {
              "internalType": "string",
              "name": "country",
              "type": "string"
            },
            {
              "internalType": "string",
              "name": "level",
              "type": "string"
            },
            {
              "internalType": "uint256",
              "name": "minSalary",
              "type": "uint256"
            },
            {
              "internalType": "uint256",
              "name": "maxSalary",
              "type": "uint256"
            },
            {
              "internalType": "string",
              "name": "requiredSkills",
              "type": "string"
            }
          ],
          "internalType": "struct MentorAgent.AgentMetadata",
          "name": "metadata",
          "type": "tuple"
        },
        {
          "components": [
            {
              "internalType": "address",
              "name": "contributor",
              "type": "address"
            },
            {
              "internalType": "uint256",
              "name": "contributionRate",
              "type": "uint256"
            }
          ],
          "internalType": "struct MentorAgent.AgentContributor[]",
          "name": "agentContributors",
          "type": "tuple[]"
        }
      ],
      "name": "createAgent",
      "outputs": [
        {
          "internalType": "uint256",
          "name": "",
          "type": "uint256"
        }
      ],
      "stateMutability": "nonpayable",
      "type": "function"
    },
    {
      "inputs": [
        {
          "internalType": "uint256",
          "name": "agentId",
          "type": "uint256"
        }
      ],
      "name": "getAgent",
      "outputs": [
        {
          "internalType": "string",
          "name": "name",
          "type": "string"
        },
        {
          "internalType": "address",
          "name": "owner",
          "type": "address"
        },
        {
          "internalType": "string",
          "name": "title",
          "type": "string"
        },
        {
          "internalType": "string",
          "name": "industry",
          "type": "string"
        },
        {
          "internalType": "string",
          "name": "description",
          "type": "string"
        },
        {
          "internalType": "string",
          "name": "country",
          "type": "string"
        },
        {
          "internalType": "string",
          "name": "level",
          "type": "string"
        },
        {
          "internalType": "uint256",
          "name": "minSalary",
          "type": "uint256"
        },
        {
          "internalType": "uint256",
          "name": "maxSalary",
          "type": "uint256"
        },
        {
          "internalType": "string",
          "name": "requiredSkills",
          "type": "string"
        },
        {
          "internalType": "uint256",
          "name": "contributorCount",
          "type": "uint256"
        }
      ],
      "stateMutability": "view",
      "type": "function"
    },
    {
      "inputs": [
        {
          "internalType": "uint256",
          "name": "agentId",
          "type": "uint256"
        }
      ],
      "name": "getAgentContributionHistory",
      "outputs": [
        {
          "internalType": "uint256[]",
          "name": "",
          "type": "uint256[]"
        },
        {
          "components": [
            {
              "internalType": "address",
              "name": "contributor",
              "type": "address"
            },
            {
              "internalType": "uint256",
              "name": "contributionRate",
              "type": "uint256"
            }
          ],
          "internalType": "struct MentorAgent.AgentContributor[][]",
          "name": "",
          "type": "tuple[][]"
        }
      ],
      "stateMutability": "view",
      "type": "function"
    },
    {
      "inputs": [
        {
          "internalType": "uint256",
          "name": "agentId",
          "type": "uint256"
        }
      ],
      "name": "getAgentContributors",
      "outputs": [
        {
          "components": [
            {
              "internalType": "address",
              "name": "contributor",
              "type": "address"
            },
            {
              "internalType": "uint256",
              "name": "contributionRate",
              "type": "uint256"
            }
          ],
          "internalType": "struct MentorAgent.AgentContributor[]",
          "name": "",
          "type": "tuple[]"
        }
      ],
      "stateMutability": "view",
      "type": "function"
    },
    {
      "inputs": [
        {
          "internalType": "uint256",
          "name": "agentId",
          "type": "uint256"
        }
      ],
      "name": "getAgentTotalReceived",
      "outputs": [
        {
          "internalType": "uint256",
          "name": "",
          "type": "uint256"
        }
      ],
      "stateMutability": "view",
      "type": "function"
    },
    {
      "inputs": [],
      "name": "getAllAgents",
      "outputs": [
        {
          "internalType": "uint256[]",
          "name": "",
          "type": "uint256[]"
        }
      ],
      "stateMutability": "view",
      "type": "function"
    },
    {
      "inputs": [
        {
          "internalType": "address",
          "name": "student",
          "type": "address"
        }
      ],
      "name": "getStudentPayments",
      "outputs": [
        {
          "components": [
            {
              "internalType": "uint256",
              "name": "timestamp",
              "type": "uint256"
            },
            {
              "internalType": "uint256",
              "name": "agentId",
              "type": "uint256"
            },
            {
              "internalType": "uint256",
              "name": "amount",
              "type": "uint256"
            }
          ],
          "internalType": "struct MentorAgent.PaymentRecord[]",
          "name": "",
          "type": "tuple[]"
        }
      ],
      "stateMutability": "view",
      "type": "function"
    },
    {
      "inputs": [
        {
          "internalType": "uint256",
          "name": "agentId",
          "type": "uint256"
        }
      ],
      "name": "payAgent",
      "outputs": [],
      "stateMutability": "payable",
      "type": "function"
    },
    {
      "inputs": [
        {
          "internalType": "uint256",
          "name": "",
          "type": "uint256"
        },
        {
          "internalType": "uint256",
          "name": "",
          "type": "uint256"
        }
      ],
      "name": "snapshotTimestamps",
      "outputs": [
        {
          "internalType": "uint256",
          "name": "",
          "type": "uint256"
        }
      ],
      "stateMutability": "view",
      "type": "function"
    },
    {
      "inputs": [
        {
          "internalType": "address",
          "name": "",
          "type": "address"
        },
        {
          "internalType": "uint256",
          "name": "",
          "type": "uint256"
        }
      ],
      "name": "studentPayments",
      "outputs": [
        {
          "internalType": "uint256",
          "name": "timestamp",
          "type": "uint256"
        },
        {
          "internalType": "uint256",
          "name": "agentId",
          "type": "uint256"
        },
        {
          "internalType": "uint256",
          "name": "amount",
          "type": "uint256"
        }
      ],
      "stateMutability": "view",
      "type": "function"
    },
    {
      "inputs": [
        {
          "internalType": "uint256",
          "name": "agentId",
          "type": "uint256"
        },
        {
          "components": [
            {
              "internalType": "address",
              "name": "contributor",
              "type": "address"
            },
            {
              "internalType": "uint256",
              "name": "contributionRate",
              "type": "uint256"
            }
          ],
          "internalType": "struct MentorAgent.AgentContributor[]",
          "name": "updatedContributors",
          "type": "tuple[]"
        }
      ],
      "name": "updateAgentContributors",
      "outputs": [],
      "stateMutability": "nonpayable",
      "type": "function"
    },
    {
      "stateMutability": "payable",
      "type": "receive"
    }
  ],
  "bytecode": "0x608060405234801561001057600080fd5b50613306806100206000396000f3fe6080604052600436106100ec5760003560e01c80632de5aaf71161008a578063720610fa11610059578063720610fa14610376578063860e4ac6146103b3578063b7dc1284146103de578063f2b61f3414610409576100f3565b80632de5aaf71461026d5780634cff17d8146102b4578063513856c8146102f257806356e7605814610339576100f3565b80631b0db444116100c65780631b0db4441461018b5780631b27efc8146101c85780631eaa0f8a146102055780632ae6b38f14610244576100f3565b80630156752c146100f55780630b172570146101325780630b5d3a431461014e576100f3565b366100f357005b005b34801561010157600080fd5b5061011c60048036038101906101179190611f63565b610447565b6040516101299190611ff8565b60405180910390f35b61014c6004803603810190610147919061203f565b6108e5565b005b34801561015a57600080fd5b50610175600480360381019061017091906120ca565b610cdd565b60405161018291906121f7565b60405180910390f35b34801561019757600080fd5b506101b260048036038101906101ad919061203f565b610d99565b6040516101bf9190611ff8565b60405180910390f35b3480156101d457600080fd5b506101ef60048036038101906101ea9190612219565b610e09565b6040516101fc9190611ff8565b60405180910390f35b34801561021157600080fd5b5061022c60048036038101906102279190612259565b610e3a565b60405161023b93929190612299565b60405180910390f35b34801561025057600080fd5b5061026b600480360381019061026691906122d0565b610e81565b005b34801561027957600080fd5b50610294600480360381019061028f919061203f565b6111c9565b6040516102ab9b9a999897969594939291906123cf565b60405180910390f35b3480156102c057600080fd5b506102db60048036038101906102d691906124ab565b61163f565b6040516102e99291906124fe565b60405180910390f35b3480156102fe57600080fd5b506103196004803603810190610314919061203f565b6116ad565b6040516103309b9a999897969594939291906123cf565b60405180910390f35b34801561034557600080fd5b50610360600480360381019061035b919061203f565b611adf565b60405161036d9190611ff8565b60405180910390f35b34801561038257600080fd5b5061039d6004803603810190610398919061203f565b611b03565b6040516103aa9190612614565b60405180910390f35b3480156103bf57600080fd5b506103c8611bd8565b6040516103d591906126e5565b60405180910390f35b3480156103ea57600080fd5b506103f3611c30565b6040516104009190611ff8565b60405180910390f35b34801561041557600080fd5b50610430600480360381019061042b919061203f565b611c36565b60405161043e929190612838565b60405180910390f35b6000806000905060005b848490508110156104995760008585838181106104715761047061286f565b5b905060400201602001359050808361048991906128cd565b9250508080600101915050610451565b5061271081146104de576040517f08c379a00000000000000000000000000000000000000000000000000000000081526004016104d59061294d565b60405180910390fd5b60016000808282546104f091906128cd565b925050819055506000805490506000600260008381526020019081526020016000209050868060000190610524919061297c565b826000019182610535929190612c25565b50338160010160006101000a81548173ffffffffffffffffffffffffffffffffffffffff021916908373ffffffffffffffffffffffffffffffffffffffff160217905550868060200190610589919061297c565b82600201918261059a929190612c25565b508680604001906105ab919061297c565b8260030191826105bc929190612c25565b508680606001906105cd919061297c565b8260040191826105de929190612c25565b508680608001906105ef919061297c565b826005019182610600929190612c25565b50868060a00190610611919061297c565b826006019182610622929190612c25565b508660c0013581600701819055508660e0013581600801819055508680610100019061064e919061297c565b82600901918261065f929190612c25565b5060005b868690508110156106cf5781600a018787838181106106855761068461286f565b5b905060400201908060018154018082558091505060019003906000526020600020906002020160009091909190915081816106c09190612e82565b50508080600101915050610663565b5060008686905067ffffffffffffffff8111156106ef576106ee6129ea565b5b60405190808252806020026020018201604052801561072857816020015b610715611e2b565b81526020019060019003908161070d5790505b50905060005b8787905081101561078d5787878281811061074c5761074b61286f565b5b9050604002018036038101906107629190612f31565b8282815181106107755761077461286f565b5b6020026020010181905250808060010191505061072e565b506000429050600460008581526020019081526020016000208190806001815401808255809150506001900390600052602060002001600090919091909150556000600560008681526020019081526020016000206000838152602001908152602001600020905060005b8989905081101561086157818a8a838181106108175761081661286f565b5b905060400201908060018154018082558091505060019003906000526020600020906002020160009091909190915081816108529190612e82565b505080806001019150506107f8565b506001859080600181540180825580915050600190039060005260206000200160009091909190915055847fa2bad51fd096fded505c462668af1424620df54cefdffc9ef304df0f2883c59c8b80600001906108bd919061297c565b336040516108cd93929190612f9a565b60405180910390a28496505050505050509392505050565b6000811180156108f757506000548111155b610936576040517f08c379a000000000000000000000000000000000000000000000000000000000815260040161092d90613018565b60405180910390fd5b60003411610979576040517f08c379a000000000000000000000000000000000000000000000000000000000815260040161097090613084565b60405180910390fd5b6000600260008381526020019081526020016000209050600073ffffffffffffffffffffffffffffffffffffffff168160010160009054906101000a900473ffffffffffffffffffffffffffffffffffffffff1673ffffffffffffffffffffffffffffffffffffffff1603610a23576040517f08c379a0000000000000000000000000000000000000000000000000000000008152600401610a1a906130f0565b60405180910390fd5b600081600a018054905011610a6d576040517f08c379a0000000000000000000000000000000000000000000000000000000008152600401610a649061315c565b60405180910390fd5b60003490508082600b016000828254610a8691906128cd565b9250508190555060005b82600a0180549050811015610be557600061271084600a018381548110610aba57610ab961286f565b5b90600052602060002090600202016001015484610ad7919061317c565b610ae191906131ed565b9050600084600a018381548110610afb57610afa61286f565b5b906000526020600020906002020160000160009054906101000a900473ffffffffffffffffffffffffffffffffffffffff1673ffffffffffffffffffffffffffffffffffffffff1682604051610b509061324f565b60006040518083038185875af1925050503d8060008114610b8d576040519150601f19603f3d011682016040523d82523d6000602084013e610b92565b606091505b5050905080610bd6576040517f08c379a0000000000000000000000000000000000000000000000000000000008152600401610bcd906132b0565b60405180910390fd5b50508080600101915050610a90565b50600360003373ffffffffffffffffffffffffffffffffffffffff1673ffffffffffffffffffffffffffffffffffffffff168152602001908152602001600020604051806060016040528042815260200185815260200183815250908060018154018082558091505060019003906000526020600020906003020160009091909190915060008201518160000155602082015181600101556040820151816002015550503373ffffffffffffffffffffffffffffffffffffffff16837f37566df6971769c95a4c085fc4c32ebbe7d4b2aa133fe7fe20895e5789bcff1283604051610cd09190611ff8565b60405180910390a3505050565b6060600360008373ffffffffffffffffffffffffffffffffffffffff1673ffffffffffffffffffffffffffffffffffffffff168152602001908152602001600020805480602002602001604051908101604052809291908181526020016000905b82821015610d8e5783829060005260206000209060030201604051806060016040529081600082015481526020016001820154815260200160028201548152505081526020019060010190610d3e565b505050509050919050565b60008082118015610dac57506000548211155b610deb576040517f08c379a0000000000000000000000000000000000000000000000000000000008152600401610de290613018565b60405180910390fd5b60026000838152602001908152602001600020600b01549050919050565b60046020528160005260406000208181548110610e2557600080fd5b90600052602060002001600091509150505481565b60036020528160005260406000208181548110610e5657600080fd5b9060005260206000209060030201600091509150508060000154908060010154908060020154905083565b600083118015610e9357506000548311155b610ed2576040517f08c379a0000000000000000000000000000000000000000000000000000000008152600401610ec990613018565b60405180910390fd5b6000805b83839050811015610f1857838382818110610ef457610ef361286f565b5b9050604002016020013582610f0991906128cd565b91508080600101915050610ed6565b506127108114610f5d576040517f08c379a0000000000000000000000000000000000000000000000000000000008152600401610f549061294d565b60405180910390fd5b60026000858152602001908152602001600020600a016000610f7f9190611e5b565b60005b838390508110156110005760026000868152602001908152602001600020600a01848483818110610fb657610fb561286f565b5b90506040020190806001815401808255809150506001900390600052602060002090600202016000909190919091508181610ff19190612e82565b50508080600101915050610f82565b5060008383905067ffffffffffffffff8111156110205761101f6129ea565b5b60405190808252806020026020018201604052801561105957816020015b611046611e2b565b81526020019060019003908161103e5790505b50905060005b848490508110156110be5784848281811061107d5761107c61286f565b5b9050604002018036038101906110939190612f31565b8282815181106110a6576110a561286f565b5b6020026020010181905250808060010191505061105f565b506000429050600460008781526020019081526020016000208190806001815401808255809150506001900390600052602060002001600090919091909150556000600560008881526020019081526020016000206000838152602001908152602001600020905060005b8686905081101561119257818787838181106111485761114761286f565b5b905060400201908060018154018082558091505060019003906000526020600020906002020160009091909190915081816111839190612e82565b50508080600101915050611129565b50867ff9ad94c5cd385423b7d420bd953716dc348c65914cceb49759c095b7ba0064a960405160405180910390a250505050505050565b6060600060608060608060606000806060600080600260008e81526020019081526020016000209050806000018160010160009054906101000a900473ffffffffffffffffffffffffffffffffffffffff16826002018360030184600401856005018660060187600701548860080154896009018a600a01805490508a805461125190612a48565b80601f016020809104026020016040519081016040528092919081815260200182805461127d90612a48565b80156112ca5780601f1061129f576101008083540402835291602001916112ca565b820191906000526020600020905b8154815290600101906020018083116112ad57829003601f168201915b50505050509a508880546112dd90612a48565b80601f016020809104026020016040519081016040528092919081815260200182805461130990612a48565b80156113565780601f1061132b57610100808354040283529160200191611356565b820191906000526020600020905b81548152906001019060200180831161133957829003601f168201915b5050505050985087805461136990612a48565b80601f016020809104026020016040519081016040528092919081815260200182805461139590612a48565b80156113e25780601f106113b7576101008083540402835291602001916113e2565b820191906000526020600020905b8154815290600101906020018083116113c557829003601f168201915b505050505097508680546113f590612a48565b80601f016020809104026020016040519081016040528092919081815260200182805461142190612a48565b801561146e5780601f106114435761010080835404028352916020019161146e565b820191906000526020600020905b81548152906001019060200180831161145157829003601f168201915b5050505050965085805461148190612a48565b80601f01602080910402602001604051908101604052809291908181526020018280546114ad90612a48565b80156114fa5780601f106114cf576101008083540402835291602001916114fa565b820191906000526020600020905b8154815290600101906020018083116114dd57829003601f168201915b5050505050955084805461150d90612a48565b80601f016020809104026020016040519081016040528092919081815260200182805461153990612a48565b80156115865780601f1061155b57610100808354040283529160200191611586565b820191906000526020600020905b81548152906001019060200180831161156957829003601f168201915b5050505050945081805461159990612a48565b80601f01602080910402602001604051908101604052809291908181526020018280546115c590612a48565b80156116125780601f106115e757610100808354040283529160200191611612565b820191906000526020600020905b8154815290600101906020018083116115f557829003601f168201915b505050505091509b509b509b509b509b509b509b509b509b509b509b505091939597999b90929496989a50565b6005602052826000526040600020602052816000526040600020818154811061166757600080fd5b906000526020600020906002020160009250925050508060000160009054906101000a900473ffffffffffffffffffffffffffffffffffffffff16908060010154905082565b60026020528060005260406000206000915090508060000180546116d090612a48565b80601f01602080910402602001604051908101604052809291908181526020018280546116fc90612a48565b80156117495780601f1061171e57610100808354040283529160200191611749565b820191906000526020600020905b81548152906001019060200180831161172c57829003601f168201915b5050505050908060010160009054906101000a900473ffffffffffffffffffffffffffffffffffffffff169080600201805461178490612a48565b80601f01602080910402602001604051908101604052809291908181526020018280546117b090612a48565b80156117fd5780601f106117d2576101008083540402835291602001916117fd565b820191906000526020600020905b8154815290600101906020018083116117e057829003601f168201915b50505050509080600301805461181290612a48565b80601f016020809104026020016040519081016040528092919081815260200182805461183e90612a48565b801561188b5780601f106118605761010080835404028352916020019161188b565b820191906000526020600020905b81548152906001019060200180831161186e57829003601f168201915b5050505050908060040180546118a090612a48565b80601f01602080910402602001604051908101604052809291908181526020018280546118cc90612a48565b80156119195780601f106118ee57610100808354040283529160200191611919565b820191906000526020600020905b8154815290600101906020018083116118fc57829003601f168201915b50505050509080600501805461192e90612a48565b80601f016020809104026020016040519081016040528092919081815260200182805461195a90612a48565b80156119a75780601f1061197c576101008083540402835291602001916119a7565b820191906000526020600020905b81548152906001019060200180831161198a57829003601f168201915b5050505050908060060180546119bc90612a48565b80601f01602080910402602001604051908101604052809291908181526020018280546119e890612a48565b8015611a355780601f10611a0a57610100808354040283529160200191611a35565b820191906000526020600020905b815481529060010190602001808311611a1857829003601f168201915b505050505090806007015490806008015490806009018054611a5690612a48565b80601f0160208091040260200160405190810160405280929190818152602001828054611a8290612a48565b8015611acf5780601f10611aa457610100808354040283529160200191611acf565b820191906000526020600020905b815481529060010190602001808311611ab257829003601f168201915b50505050509080600b015490508b565b60018181548110611aef57600080fd5b906000526020600020016000915090505481565b606060026000838152602001908152602001600020600a01805480602002602001604051908101604052809291908181526020016000905b82821015611bcd57838290600052602060002090600202016040518060400160405290816000820160009054906101000a900473ffffffffffffffffffffffffffffffffffffffff1673ffffffffffffffffffffffffffffffffffffffff1673ffffffffffffffffffffffffffffffffffffffff16815260200160018201548152505081526020019060010190611b3b565b505050509050919050565b60606001805480602002602001604051908101604052809291908181526020018280548015611c2657602002820191906000526020600020905b815481526020019060010190808311611c12575b5050505050905090565b60005481565b606080600060046000858152602001908152602001600020805480602002602001604051908101604052809291908181526020018280548015611c9857602002820191906000526020600020905b815481526020019060010190808311611c84575b505050505090506000815167ffffffffffffffff811115611cbc57611cbb6129ea565b5b604051908082528060200260200182016040528015611cef57816020015b6060815260200190600190039081611cda5790505b50905060005b8251811015611e1d57600560008781526020019081526020016000206000848381518110611d2657611d2561286f565b5b60200260200101518152602001908152602001600020805480602002602001604051908101604052809291908181526020016000905b82821015611dee57838290600052602060002090600202016040518060400160405290816000820160009054906101000a900473ffffffffffffffffffffffffffffffffffffffff1673ffffffffffffffffffffffffffffffffffffffff1673ffffffffffffffffffffffffffffffffffffffff16815260200160018201548152505081526020019060010190611d5c565b50505050828281518110611e0557611e0461286f565b5b60200260200101819052508080600101915050611cf5565b508181935093505050915091565b6040518060400160405280600073ffffffffffffffffffffffffffffffffffffffff168152602001600081525090565b5080546000825560020290600052602060002090810190611e7c9190611e7f565b50565b5b80821115611ec157600080820160006101000a81549073ffffffffffffffffffffffffffffffffffffffff0219169055600182016000905550600201611e80565b5090565b6000604051905090565b600080fd5b600080fd5b600080fd5b60006101208284031215611ef557611ef4611ed9565b5b81905092915050565b600080fd5b600080fd5b600080fd5b60008083601f840112611f2357611f22611efe565b5b8235905067ffffffffffffffff811115611f4057611f3f611f03565b5b602083019150836040820283011115611f5c57611f5b611f08565b5b9250929050565b600080600060408486031215611f7c57611f7b611ecf565b5b600084013567ffffffffffffffff811115611f9a57611f99611ed4565b5b611fa686828701611ede565b935050602084013567ffffffffffffffff811115611fc757611fc6611ed4565b5b611fd386828701611f0d565b92509250509250925092565b6000819050919050565b611ff281611fdf565b82525050565b600060208201905061200d6000830184611fe9565b92915050565b61201c81611fdf565b811461202757600080fd5b50565b60008135905061203981612013565b92915050565b60006020828403121561205557612054611ecf565b5b60006120638482850161202a565b91505092915050565b600073ffffffffffffffffffffffffffffffffffffffff82169050919050565b60006120978261206c565b9050919050565b6120a78161208c565b81146120b257600080fd5b50565b6000813590506120c48161209e565b92915050565b6000602082840312156120e0576120df611ecf565b5b60006120ee848285016120b5565b91505092915050565b600081519050919050565b600082825260208201905092915050565b6000819050602082019050919050565b61212c81611fdf565b82525050565b6060820160008201516121486000850182612123565b50602082015161215b6020850182612123565b50604082015161216e6040850182612123565b50505050565b60006121808383612132565b60608301905092915050565b6000602082019050919050565b60006121a4826120f7565b6121ae8185612102565b93506121b983612113565b8060005b838110156121ea5781516121d18882612174565b97506121dc8361218c565b9250506001810190506121bd565b5085935050505092915050565b600060208201905081810360008301526122118184612199565b905092915050565b600080604083850312156122305761222f611ecf565b5b600061223e8582860161202a565b925050602061224f8582860161202a565b9150509250929050565b600080604083850312156122705761226f611ecf565b5b600061227e858286016120b5565b925050602061228f8582860161202a565b9150509250929050565b60006060820190506122ae6000830186611fe9565b6122bb6020830185611fe9565b6122c86040830184611fe9565b949350505050565b6000806000604084860312156122e9576122e8611ecf565b5b60006122f78682870161202a565b935050602084013567ffffffffffffffff81111561231857612317611ed4565b5b61232486828701611f0d565b92509250509250925092565b600081519050919050565b600082825260208201905092915050565b60005b8381101561236a57808201518184015260208101905061234f565b60008484015250505050565b6000601f19601f8301169050919050565b600061239282612330565b61239c818561233b565b93506123ac81856020860161234c565b6123b581612376565b840191505092915050565b6123c98161208c565b82525050565b60006101608201905081810360008301526123ea818e612387565b90506123f9602083018d6123c0565b818103604083015261240b818c612387565b9050818103606083015261241f818b612387565b90508181036080830152612433818a612387565b905081810360a08301526124478189612387565b905081810360c083015261245b8188612387565b905061246a60e0830187611fe9565b612478610100830186611fe9565b81810361012083015261248b8185612387565b905061249b610140830184611fe9565b9c9b505050505050505050505050565b6000806000606084860312156124c4576124c3611ecf565b5b60006124d28682870161202a565b93505060206124e38682870161202a565b92505060406124f48682870161202a565b9150509250925092565b600060408201905061251360008301856123c0565b6125206020830184611fe9565b9392505050565b600081519050919050565b600082825260208201905092915050565b6000819050602082019050919050565b61255c8161208c565b82525050565b6040820160008201516125786000850182612553565b50602082015161258b6020850182612123565b50505050565b600061259d8383612562565b60408301905092915050565b6000602082019050919050565b60006125c182612527565b6125cb8185612532565b93506125d683612543565b8060005b838110156126075781516125ee8882612591565b97506125f9836125a9565b9250506001810190506125da565b5085935050505092915050565b6000602082019050818103600083015261262e81846125b6565b905092915050565b600081519050919050565b600082825260208201905092915050565b6000819050602082019050919050565b600061266e8383612123565b60208301905092915050565b6000602082019050919050565b600061269282612636565b61269c8185612641565b93506126a783612652565b8060005b838110156126d85781516126bf8882612662565b97506126ca8361267a565b9250506001810190506126ab565b5085935050505092915050565b600060208201905081810360008301526126ff8184612687565b905092915050565b600081519050919050565b600082825260208201905092915050565b6000819050602082019050919050565b600082825260208201905092915050565b600061274f82612527565b6127598185612733565b935061276483612543565b8060005b8381101561279557815161277c8882612591565b9750612787836125a9565b925050600181019050612768565b5085935050505092915050565b60006127ae8383612744565b905092915050565b6000602082019050919050565b60006127ce82612707565b6127d88185612712565b9350836020820285016127ea85612723565b8060005b85811015612826578484038952815161280785826127a2565b9450612812836127b6565b925060208a019950506001810190506127ee565b50829750879550505050505092915050565b600060408201905081810360008301526128528185612687565b9050818103602083015261286681846127c3565b90509392505050565b7f4e487b7100000000000000000000000000000000000000000000000000000000600052603260045260246000fd5b7f4e487b7100000000000000000000000000000000000000000000000000000000600052601160045260246000fd5b60006128d882611fdf565b91506128e383611fdf565b92508282019050808211156128fb576128fa61289e565b5b92915050565b7f546f74616c20636f6e747269627574696f6e206d757374206265203130303030600082015250565b600061293760208361233b565b915061294282612901565b602082019050919050565b600060208201905081810360008301526129668161292a565b9050919050565b600080fd5b600080fd5b600080fd5b600080833560016020038436030381126129995761299861296d565b5b80840192508235915067ffffffffffffffff8211156129bb576129ba612972565b5b6020830192506001820236038313156129d7576129d6612977565b5b509250929050565b600082905092915050565b7f4e487b7100000000000000000000000000000000000000000000000000000000600052604160045260246000fd5b7f4e487b7100000000000000000000000000000000000000000000000000000000600052602260045260246000fd5b60006002820490506001821680612a6057607f821691505b602082108103612a7357612a72612a19565b5b50919050565b60008190508160005260206000209050919050565b60006020601f8301049050919050565b600082821b905092915050565b600060088302612adb7fffffffffffffffffffffffffffffffffffffffffffffffffffffffffffffffff82612a9e565b612ae58683612a9e565b95508019841693508086168417925050509392505050565b6000819050919050565b6000612b22612b1d612b1884611fdf565b612afd565b611fdf565b9050919050565b6000819050919050565b612b3c83612b07565b612b50612b4882612b29565b848454612aab565b825550505050565b600090565b612b65612b58565b612b70818484612b33565b505050565b5b81811015612b9457612b89600082612b5d565b600181019050612b76565b5050565b601f821115612bd957612baa81612a79565b612bb384612a8e565b81016020851015612bc2578190505b612bd6612bce85612a8e565b830182612b75565b50505b505050565b600082821c905092915050565b6000612bfc60001984600802612bde565b1980831691505092915050565b6000612c158383612beb565b9150826002028217905092915050565b612c2f83836129df565b67ffffffffffffffff811115612c4857612c476129ea565b5b612c528254612a48565b612c5d828285612b98565b6000601f831160018114612c8c5760008415612c7a578287013590505b612c848582612c09565b865550612cec565b601f198416612c9a86612a79565b60005b82811015612cc257848901358255600182019150602085019450602081019050612c9d565b86831015612cdf5784890135612cdb601f891682612beb565b8355505b6001600288020188555050505b50505050505050565b60008135612d028161209e565b80915050919050565b60008160001b9050919050565b600073ffffffffffffffffffffffffffffffffffffffff612d3884612d0b565b9350801983169250808416831791505092915050565b6000612d69612d64612d5f8461206c565b612afd565b61206c565b9050919050565b6000612d7b82612d4e565b9050919050565b6000612d8d82612d70565b9050919050565b6000819050919050565b612da782612d82565b612dba612db382612d94565b8354612d18565b8255505050565b60008135612dce81612013565b80915050919050565b60007fffffffffffffffffffffffffffffffffffffffffffffffffffffffffffffffff612e0384612d0b565b9350801983169250808416831791505092915050565b612e2282612b07565b612e35612e2e82612b29565b8354612dd7565b8255505050565b600081016000830180612e4e81612cf5565b9050612e5a8184612d9e565b505050600181016020830180612e6f81612dc1565b9050612e7b8184612e19565b5050505050565b612e8c8282612e3c565b5050565b600080fd5b612e9e82612376565b810181811067ffffffffffffffff82111715612ebd57612ebc6129ea565b5b80604052505050565b6000612ed0611ec5565b9050612edc8282612e95565b919050565b600060408284031215612ef757612ef6612e90565b5b612f016040612ec6565b90506000612f11848285016120b5565b6000830152506020612f258482850161202a565b60208301525092915050565b600060408284031215612f4757612f46611ecf565b5b6000612f5584828501612ee1565b91505092915050565b82818337600083830152505050565b6000612f79838561233b565b9350612f86838584612f5e565b612f8f83612376565b840190509392505050565b60006040820190508181036000830152612fb5818587612f6d565b9050612fc460208301846123c0565b949350505050565b7f496e76616c6964206167656e7449640000000000000000000000000000000000600082015250565b6000613002600f8361233b565b915061300d82612fcc565b602082019050919050565b6000602082019050818103600083015261303181612ff5565b9050919050565b7f416d6f756e74206d7573742062652067726561746572207468616e2030000000600082015250565b600061306e601d8361233b565b915061307982613038565b602082019050919050565b6000602082019050818103600083015261309d81613061565b9050919050565b7f4167656e74206e6f7420666f756e640000000000000000000000000000000000600082015250565b60006130da600f8361233b565b91506130e5826130a4565b602082019050919050565b60006020820190508181036000830152613109816130cd565b9050919050565b7f4e6f20636f6e7472696275746f72730000000000000000000000000000000000600082015250565b6000613146600f8361233b565b915061315182613110565b602082019050919050565b6000602082019050818103600083015261317581613139565b9050919050565b600061318782611fdf565b915061319283611fdf565b92508282026131a081611fdf565b915082820484148315176131b7576131b661289e565b5b5092915050565b7f4e487b7100000000000000000000000000000000000000000000000000000000600052601260045260246000fd5b60006131f882611fdf565b915061320383611fdf565b925082613213576132126131be565b5b828204905092915050565b600081905092915050565b50565b600061323960008361321e565b915061324482613229565b600082019050919050565b600061325a8261322c565b9150819050919050565b7f5472616e7366657220746f20636f6e7472696275746f72206661696c65640000600082015250565b600061329a601e8361233b565b91506132a582613264565b602082019050919050565b600060208201905081810360008301526132c98161328d565b905091905056fea26469706673582212205220d4d6090dd04ea59995d5dad7d663e1e3c123aa466993352a037e293e04e364736f6c63430008160033",
  "linkReferences": {},
  "deployedLinkReferences": {}
}